:1000000026C040C03FC03EC03DC041C23BC03AC018
:1000100039C038C037C036C035C034C033C0010223
:100020000000040000000000010204081020200469
:100030001008020202020202020202020000000094
:1000400036000000000038000000000037001124D6
:100050001FBECFE5D1E0DEBFCDBF10E0A0E6B0E02F
:10006000E8EBFDE002C005900D92AC36B107D9F780
:1000700020E0ACE6B0E001C01D92A838B207E1F77D
:1000800013D498C6BDCF4F925F926F927F928F929A
:100090009F92AF92BF92CF92DF92EF92FF921F9307
:1000A000CF93DF9300D000D0CDB7DEB7182F4A0131
:1000B0005B0137D22B013C01812F8CD3019719F4BE
:1000C00080E395E789D22DD26419750986099709CD
:1000D000681579058A059B0558F4812F7BD3019714
:1000E00091F71FD269837A838B839C836B017C0198
:1000F00018D26419750986099709681579058A0562
:100100009B0510F5812F66D3019719F40AD26B0174
:100110007C0107D26C197D098E099F0961397140F4
:100120008105910528F389819A81AB81BC81C81A28
:10013000D90AEA0AFB0A83E0F694E794D794C794B5
:100140008A95D1F7C60102C080E090E00F900F9031
:100150000F900F90DF91CF911F91FF90EF90DF9064
:10016000CF90BF90AF909F908F907F906F905F9057
:100170004F90089560E080E0BFD261E081E0BCD2A2
:1001800082E083BF08958F929F92AF92BF92CF92E9
:10019000DF92EF92FF920F931F93CF93DF9328E4A8
:1001A00031EE4AE75FE360916800709169008091E9
:1001B0006A0090916B00D3D46B017C0140E85AE156
:1001C00066E070E080E05FDFBC01882777FD809506
:1001D000982F11D42AE037ED43EA5CE3C0D49B01A9
:1001E000AC01C701B6016CD36B017C016093680060
:1001F0007093690080936A0090936B0020E030E078
:100200004AEF53E4C1D318162CF080E0E3D20197F3
:1002100051F417C020E030E04CE854E4C701B601C7
:10022000B3D387FF05C010927D0010927C002EC0D2
:1002300020E030E04BEE54E4C701B6018CD4181630
:100240003CF486EE90E090937D0080937C001EC08D
:10025000C701B6019DD31F921F921F9226EE2F93C6
:10026000A12CB12C650118E5E12E17E0F12E00E07C
:1002700010E020E634E040E050E0D4D270937D00FE
:1002800060937C000F900F900F900F9028E431EE58
:100290004AE75FE3609178007091790080917A007D
:1002A00090917B005CD46B017C0187E0B9D1BC01EB
:1002B000882777FD8095982F9ED32AE037ED43EA73
:1002C0005CE34DD49B01AC01C701B601F9D29B019F
:1002D000AC01609378007093790080937A009093DA
:1002E0007B0060E070E884E893E4E9D24B015C01B4
:1002F00060937400709375008093760090937700FC
:100300002AE037ED43EA5BE32AD420916C00309178
:100310006D0040916E0050916F00D2D28B01D82FAA
:10032000C92F20E030E04FEF53EC2ED387FD0FC0F4
:1003300020E030E04FEF53E4B8018D2F9C2F0BD419
:1003400018164CF400E010E0DFEFC3E404C000E056
:1003500010E0DFEFC3ECA8016D2F7C2F40936C0001
:1003600050936D0060936E0070936F00E0907C007E
:10037000F0907D00E114F10441F410926C001092B1
:100380006D0010926E0010926F0020E030E040EAA5
:1003900050E4C501B401E3D34B015C0120E030E03F
:1003A00040E05FE360916C0070916D0080916E00A1
:1003B00090916F00D4D39B01AC01C501B40180D2F0
:1003C0009B01AC0160937000709371008093720088
:1003D0009093730060E070E08FE793E470D26B015C
:1003E000D82FC92F20E030E040EA51E4CDD287FD7C
:1003F0000FC020E030E046E653E4B6018D2F9C2F7D
:10040000AAD318164CF4C12CD12CD6E6C3E404C0F0
:10041000C12CD12CD0EAC1E4A6016D2F7C2F4093D2
:10042000640050936500609366007093670085E1F7
:10043000E816F104C4F0B701882777FD8095982F5E
:10044000DAD296014D2F5C2F86D3181634F4B601FC
:100450008D2F9C2F9DD2262F02C02E2D7F2D622FF7
:1004600081E0F2D003C060E081E07FD161E070E024
:1004700080E090E0DF91CF911F910F91FF90EF907E
:10048000DF90CF90BF90AF909F908F906EC01F92E3
:100490000F920FB60F9211242F933F938F939F9338
:1004A000AF93BF9380917F0090918000A0918100D5
:1004B000B091820030917E0026E0230F2D3720F48A
:1004C0000296A11DB11D05C029E8230F0396A11DA9
:1004D000B11D20937E0080937F0090938000A093B5
:1004E0008100B09382008091830090918400A0915C
:1004F0008500B09186000196A11DB11D80938300F7
:1005000090938400A0938500B0938600BF91AF9133
:100510009F918F913F912F910F900FBE0F901F9041
:1005200018953FB7F8948091830090918400A09132
:100530008500B091860022B708B601FE05C02F3FA6
:1005400019F00196A11DB11D3FBF6627782F892F95
:100550009A2F620F711D811D911D43E0660F771F59
:10056000881F991F4A95D1F708958F929F92AF9255
:10057000BF92CF92DF92EF92FF926B017C01D1DFAD
:100580004B015C01C114D104E104F104E1F096D106
:10059000C8DF681979098A099B09683E734081059B
:1005A000910580F321E0C21AD108E108F10888EE34
:1005B000880E83E0981EA11CB11CC114D104E10473
:1005C000F10431F7DFCFFF90EF90DF90CF90BF9035
:1005D000AF909F908F9008958330910528F0880FF9
:1005E000991F04970197F1F7089578948AB582606E
:1005F0008ABD8AB581608ABD83B7826083BF83B7B5
:10060000816083BF89B7826089BF80B7826080BF05
:1006100080B7816080BF329A319A3098379A0895B6
:10062000863008F086508770909187009295990FD8
:10063000990F907C982B97B9369A3699FECF84B152
:1006400025B190E0922B08951F93CF93DF93182F3D
:10065000EB0161E051D0209711F460E004C0CF3F7E
:10066000D10531F461E0812FDF91CF911F917DC0E1
:10067000E12FF0E0E25EFF4FE491E23089F038F4E0
:10068000E130C1F48AB580688ABDC9BD17C0E330C6
:1006900061F0E43079F48CB580628CBDCBBD0EC0C6
:1006A0008AB580628ABDC8BD09C08CB580628CBD28
:1006B000CEBD04C0C038D105ACF6CFCFDF91CF910D
:1006C0001F910895823081F018F4813051F008951F
:1006D000833019F0843009F008958CB58F7D8CBD7E
:1006E00008958AB58F7702C08AB58F7D8ABD089537
:1006F0008CB580648CBD0895CF93DF9390E0FC01AE
:10070000E85DFF4F2491FC01EE5CFF4F849188234C
:1007100049F190E0880F991FFC01E85BFF4FA5911C
:10072000B4918E5B9F4FFC01C591D4919FB761112D
:1007300008C0F8948C91209582238C938881822321
:100740000AC0623051F4F8948C91322F3095832393
:100750008C938881822B888304C0F8948C91822B9F
:100760008C939FBFDF91CF9108950F931F93CF93E9
:10077000DF931F92CDB7DEB7282F30E0F901E25E9C
:10078000FF4F8491F901E85DFF4F1491F901EE5C90
:10079000FF4F04910023C1F0882319F0698392DF91
:1007A0006981E02FF0E0EE0FFF1FEE5BFF4FA59198
:1007B000B4919FB7F8948C91611103C01095812377
:1007C00001C0812B8C939FBF0F90DF91CF911F9120
:1007D0000F910895CF93DF93282F30E0F901E25E67
:1007E000FF4F8491F901E85DFF4FD491F901EE5C70
:1007F000FF4FC491CC2389F0811164DFEC2FF0E02E
:10080000EE0FFF1FE45CFF4FA591B4912C912D23B7
:1008100081E090E021F480E002C080E090E0DF9190
:10082000CF9108954F925F926F927F92AF92BF9255
:10083000CF92DF92EF92FF920F931F93CF93DF93AC
:10084000CDB7DEB729013A0129893A894B895C89FC
:1008500064197509860997092A193B094C095D092C
:1008600005D2A32FF42FE52FE418F5080609170980
:10087000622F7A2F8F2F9E2FA8019701DBD12A0D8F
:100880003B1D4C1D5D1DCA01B901DF91CF911F9128
:100890000F91FF90EF90DF90CF90BF90AF907F903F
:1008A0006F905F904F900895A0DE22DF63DCC0E080
:1008B000D0E069DC2097E9F3A3DBFBCF0895505823
:1008C000BB27AA270ED00DC1FED030F003D120F0F7
:1008D00031F49F3F11F41EF4F3C00EF4E095E7FBF2
:1008E000E9C0E92F0FD180F3BA17620773078407B5
:1008F000950718F071F49EF527C10EF4E0950B2EC4
:10090000BA2FA02D0B01B90190010C01CA01A00161
:100910001124FF27591B99F0593F50F4503E68F1BC
:100920001A16F040A22F232F342F4427585FF3CFFD
:10093000469537952795A795F0405395C9F77EF4CE
:100940001F16BA0B620B730B840BBAF09150A1F017
:10095000FF0FBB1F661F771F881FC2F70EC0BA0F9D
:10096000621F731F841F48F4879577956795B79525
:10097000F7959E3F08F0B3CF9395880F08F099271D
:10098000EE0F97958795089571D008F481E008954A
:1009900004D06894B111D9C00895BCD088F09F5795
:1009A00090F0B92F9927B751A0F0D1F0660F771FBB
:1009B000881F991F1AF0BA95C9F712C0B13081F09B
:1009C000C3D0B1E00895C0C0672F782F8827B85FE3
:1009D00039F0B93FCCF3869577956795B395D9F7FC
:1009E0003EF490958095709561957F4F8F4F9F4F06
:1009F0000895E89409C097FB3EF490958095709512
:100A000061957F4F8F4F9F4F9923A9F0F92F96E95A
:100A1000BB279395F695879577956795B795F111CF
:100A2000F8CFFAF4BB0F11F460FF1BC06F5F7F4F6C
:100A30008F4F9F4F16C0882311F096E911C077237E
:100A400021F09EE8872F762F05C0662371F096E887
:100A5000862F70E060E02AF09A95660F771F881F56
:100A6000DAF7880F9695879597F90895990F0008FA
:100A7000550FAA0BE0E8FEEF16161706E807F90770
:100A8000C0F012161306E407F50798F0621B730B0B
:100A9000840B950B39F40A2661F0232B242B252B8C
:100AA00021F408950A2609F4A140A6958FEF811D2F
:100AB000811D089597F99F6780E870E060E00895D0
:100AC0009FEF80EC089500240A9416161706180666
:100AD0000906089500240A94121613061406050642
:100AE0000895092E0394000C11F4882352F0BB0FD3
:100AF00040F4BF2B11F460FF04C06F5F7F4F8F4F36
:100B00009F4F089557FD9058440F551F59F05F3F70
:100B100071F04795880F97FB991F61F09F3F79F01F
:100B200087950895121613061406551FF2CF4695A1
:100B3000F1DF08C0161617061806991FF1CF869523
:100B40007105610508940895E894BB276627772707
:100B5000CB0197F908958ADF08F48FEF08950AD042
:100B6000C0CFB1DF28F0B6DF18F0952309F0A2CF8F
:100B7000A7CFEBCFC7DFA8F39923D9F35523C9F348
:100B8000950F50E0551FAA27EE27FF27BB2700240B
:100B90000894679520F4E20FF31FB41F0A1E220F7A
:100BA000331F441FAA1F6695A9F7779530F4F30FFA
:100BB000B41F0A1E121E08F46395330F441FAA1FA8
:100BC000221F769599F7879520F4B40F0A1E121EFE
:100BD000631F440FAA1F221F331F8695A9F7862F74
:100BE000712D602D11249F5750408AF0E1F0882329
:100BF0004AF0EE0FFF1FBB1F661F771F881F915023
:100C00005040A9F79E3F510570F054CF9ECF5F3FF3
:100C1000ECF3983EDCF3869577956795B795F79555
:100C2000E7959F5FC1F7FE2B880F911D96958795DD
:100C300097F90895052E97FB16F400940FD057FDF1
:100C400005D068D007FC02D046F408C05095409506
:100C5000309521953F4F4F4F5F4F08959095809568
:100C6000709561957F4F8F4F9F4F08956894001343
:100C7000E894A0E0B0E0EEE3F6E01DC0EFEFE7F9A6
:100C800059016A015E23550FEE08FE2C87019B0176
:100C9000AC019E23990F660B762FCB015DD0CDB7AB
:100CA000DEB7EAE024C02F923F924F925F926F929C
:100CB0007F928F929F92AF92BF92CF92DF92EF92EC
:100CC000FF920F931F93CF93DF93CDB7DEB7CA1B6D
:100CD000DB0B0FB6F894DEBF0FBECDBF09942A8898
:100CE000398848885F846E847D848C849B84AA8440
:100CF000B984C884DF80EE80FD800C811B81AA81CD
:100D0000B981CE0FD11D0FB6F894DEBF0FBECDBF97
:100D1000ED010895A1E21A2EAA1BBB1BFD010DC017
:100D2000AA1FBB1FEE1FFF1FA217B307E407F5079B
:100D300020F0A21BB30BE40BF50B661F771F881F77
:100D4000991F1A9469F760957095809590959B010D
:100D5000AC01BD01CF010895DF93CF939F92A0E432
:100D60009A2E0024D001E001F00116950795F79422
:100D7000E794D794C794B794A79448F41068A20F47
:100D8000B31FC41FD51FE61FF71F081E191E220F11
:100D9000331F441F551F661F771F881F991F9A9482
:100DA00021F79D01AE01BF01C00111249F90CF9199
:080DB000DF910895F894FFCFD4
:0C0DB8000100000000007F43008089441F
:00000001FF
